{"abi":[{"type":"function","name":"agentConfigs","inputs":[{"name":"","type":"uint256","internalType":"uint256"}],"outputs":[{"name":"name","type":"string","internalType":"string"},{"name":"strategyType","type":"string","internalType":"string"},{"name":"metadataURI","type":"string","internalType":"string"},{"name":"operator","type":"address","internalType":"address"},{"name":"strategyHash","type":"bytes32","internalType":"bytes32"},{"name":"active","type":"bool","internalType":"bool"},{"name":"registeredAt","type":"uint64","internalType":"uint64"}],"stateMutability":"view"},{"type":"function","name":"approve","inputs":[{"name":"approved","type":"address","internalType":"address"},{"name":"tokenId","type":"uint256","internalType":"uint256"}],"outputs":[],"stateMutability":"nonpayable"},{"type":"function","name":"balanceOf","inputs":[{"name":"owner","type":"address","internalType":"address"}],"outputs":[{"name":"","type":"uint256","internalType":"uint256"}],"stateMutability":"view"},{"type":"function","name":"getApproved","inputs":[{"name":"tokenId","type":"uint256","internalType":"uint256"}],"outputs":[{"name":"","type":"address","internalType":"address"}],"stateMutability":"view"},{"type":"function","name":"isApprovedForAll","inputs":[{"name":"owner","type":"address","internalType":"address"},{"name":"operator","type":"address","internalType":"address"}],"outputs":[{"name":"","type":"bool","internalType":"bool"}],"stateMutability":"view"},{"type":"function","name":"isAuthorizedOperator","inputs":[{"name":"agentId","type":"uint256","internalType":"uint256"},{"name":"caller","type":"address","internalType":"address"}],"outputs":[{"name":"","type":"bool","internalType":"bool"}],"stateMutability":"view"},{"type":"function","name":"name","inputs":[],"outputs":[{"name":"","type":"string","internalType":"string"}],"stateMutability":"view"},{"type":"function","name":"nextAgentId","inputs":[],"outputs":[{"name":"","type":"uint256","internalType":"uint256"}],"stateMutability":"view"},{"type":"function","name":"ownerOf","inputs":[{"name":"tokenId","type":"uint256","internalType":"uint256"}],"outputs":[{"name":"owner","type":"address","internalType":"address"}],"stateMutability":"view"},{"type":"function","name":"registerAgent","inputs":[{"name":"agentName","type":"string","internalType":"string"},{"name":"strategyType","type":"string","internalType":"string"},{"name":"metadataURI","type":"string","internalType":"string"},{"name":"operator","type":"address","internalType":"address"},{"name":"strategyHash","type":"bytes32","internalType":"bytes32"}],"outputs":[{"name":"agentId","type":"uint256","internalType":"uint256"}],"stateMutability":"nonpayable"},{"type":"function","name":"setAgentOperator","inputs":[{"name":"agentId","type":"uint256","internalType":"uint256"},{"name":"operator","type":"address","internalType":"address"}],"outputs":[],"stateMutability":"nonpayable"},{"type":"function","name":"setAgentStatus","inputs":[{"name":"agentId","type":"uint256","internalType":"uint256"},{"name":"active","type":"bool","internalType":"bool"}],"outputs":[],"stateMutability":"nonpayable"},{"type":"function","name":"setApprovalForAll","inputs":[{"name":"operator","type":"address","internalType":"address"},{"name":"approved","type":"bool","internalType":"bool"}],"outputs":[],"stateMutability":"nonpayable"},{"type":"function","name":"symbol","inputs":[],"outputs":[{"name":"","type":"string","internalType":"string"}],"stateMutability":"view"},{"type":"function","name":"tokenURI","inputs":[{"name":"agentId","type":"uint256","internalType":"uint256"}],"outputs":[{"name":"","type":"string","internalType":"string"}],"stateMutability":"view"},{"type":"function","name":"updateAgentMetadata","inputs":[{"name":"agentId","type":"uint256","internalType":"uint256"},{"name":"metadataURI","type":"string","internalType":"string"}],"outputs":[],"stateMutability":"nonpayable"},{"type":"event","name":"AgentMetadataUpdated","inputs":[{"name":"agentId","type":"uint256","indexed":true,"internalType":"uint256"},{"name":"metadataURI","type":"string","indexed":false,"internalType":"string"}],"anonymous":false},{"type":"event","name":"AgentOperatorUpdated","inputs":[{"name":"agentId","type":"uint256","indexed":true,"internalType":"uint256"},{"name":"operator","type":"address","indexed":true,"internalType":"address"}],"anonymous":false},{"type":"event","name":"AgentRegistered","inputs":[{"name":"agentId","type":"uint256","indexed":true,"internalType":"uint256"},{"name":"owner","type":"address","indexed":true,"internalType":"address"},{"name":"operator","type":"address","indexed":true,"internalType":"address"},{"name":"name","type":"string","indexed":false,"internalType":"string"},{"name":"strategyType","type":"string","indexed":false,"internalType":"string"},{"name":"metadataURI","type":"string","indexed":false,"internalType":"string"},{"name":"strategyHash","type":"bytes32","indexed":false,"internalType":"bytes32"}],"anonymous":false},{"type":"event","name":"AgentStatusUpdated","inputs":[{"name":"agentId","type":"uint256","indexed":true,"internalType":"uint256"},{"name":"active","type":"bool","indexed":false,"internalType":"bool"}],"anonymous":false},{"type":"event","name":"Approval","inputs":[{"name":"owner","type":"address","indexed":true,"internalType":"address"},{"name":"approved","type":"address","indexed":true,"internalType":"address"},{"name":"tokenId","type":"uint256","indexed":true,"internalType":"uint256"}],"anonymous":false},{"type":"event","name":"ApprovalForAll","inputs":[{"name":"owner","type":"address","indexed":true,"internalType":"address"},{"name":"operator","type":"address","indexed":true,"internalType":"address"},{"name":"approved","type":"bool","indexed":false,"internalType":"bool"}],"anonymous":false},{"type":"event","name":"Transfer","inputs":[{"name":"from","type":"address","indexed":true,"internalType":"address"},{"name":"to","type":"address","indexed":true,"internalType":"address"},{"name":"tokenId","type":"uint256","indexed":true,"internalType":"uint256"}],"anonymous":false}],"bytecode":{"object":"0x608060405260015f553480156012575f5ffd5b506122bd806100205f395ff3fe608060405234801561000f575f5ffd5b50600436106100fe575f3560e01c80636352211e11610095578063a22cb46511610064578063a22cb465146102d6578063c87b56dd146102f2578063e985e9c514610322578063ed72e99914610352576100fe565b80636352211e1461022857806370a08231146102585780639049d3a01461028857806395d89b41146102b8576100fe565b80630d8dfbda116100d15780630d8dfbda146101885780631bc51e7d146101b857806330efc498146101d4578063584d5e49146101f2576100fe565b806306fdde0314610102578063081812fc14610120578063095ea7b3146101505780630c5571431461016c575b5f5ffd5b61010a61036e565b604051610117919061156c565b60405180910390f35b61013a600480360381019061013591906115c7565b6103a7565b6040516101479190611631565b60405180910390f35b61016a60048036038101906101659190611674565b61047e565b005b610186600480360381019061018191906116b2565b610633565b005b6101a2600480360381019061019d91906116b2565b6107b3565b6040516101af919061170a565b60405180910390f35b6101d260048036038101906101cd919061174d565b61087a565b005b6101dc610959565b6040516101e9919061179a565b60405180910390f35b61020c600480360381019061020791906115c7565b61095e565b60405161021f97969594939291906117ed565b60405180910390f35b610242600480360381019061023d91906115c7565b610b6d565b60405161024f9190611631565b60405180910390f35b610272600480360381019061026d919061186f565b610c14565b60405161027f919061179a565b60405180910390f35b6102a2600480360381019061029d9190611925565b610cc8565b6040516102af919061179a565b60405180910390f35b6102c0611120565b6040516102cd919061156c565b60405180910390f35b6102f060048036038101906102eb91906119fc565b611159565b005b61030c600480360381019061030791906115c7565b611251565b604051610319919061156c565b60405180910390f35b61033c60048036038101906103379190611a3a565b611393565b604051610349919061170a565b60405180910390f35b61036c60048036038101906103679190611a78565b611421565b005b6040518060400160405280601681526020017f437265646f7261204167656e742050617373706f72740000000000000000000081525081565b5f5f73ffffffffffffffffffffffffffffffffffffffff1660025f8481526020019081526020015f205f9054906101000a900473ffffffffffffffffffffffffffffffffffffffff1673ffffffffffffffffffffffffffffffffffffffff1603610446576040517f08c379a000000000000000000000000000000000000000000000000000000000815260040161043d90611b1f565b60405180910390fd5b60045f8381526020019081526020015f205f9054906101000a900473ffffffffffffffffffffffffffffffffffffffff169050919050565b5f61048882610b6d565b90508073ffffffffffffffffffffffffffffffffffffffff163373ffffffffffffffffffffffffffffffffffffffff161480610545575060055f8273ffffffffffffffffffffffffffffffffffffffff1673ffffffffffffffffffffffffffffffffffffffff1681526020019081526020015f205f3373ffffffffffffffffffffffffffffffffffffffff1673ffffffffffffffffffffffffffffffffffffffff1681526020019081526020015f205f9054906101000a900460ff165b610584576040517f08c379a000000000000000000000000000000000000000000000000000000000815260040161057b90611b87565b60405180910390fd5b8260045f8481526020019081526020015f205f6101000a81548173ffffffffffffffffffffffffffffffffffffffff021916908373ffffffffffffffffffffffffffffffffffffffff160217905550818373ffffffffffffffffffffffffffffffffffffffff168273ffffffffffffffffffffffffffffffffffffffff167f8c5be1e5ebec7d5bd14f71427d1e84f3dd0314c0f7b2291e5b200ac8c7c3b92560405160405180910390a4505050565b813373ffffffffffffffffffffffffffffffffffffffff1661065482610b6d565b73ffffffffffffffffffffffffffffffffffffffff16146106aa576040517f08c379a00000000000000000000000000000000000000000000000000000000081526004016106a190611bef565b60405180910390fd5b5f73ffffffffffffffffffffffffffffffffffffffff168273ffffffffffffffffffffffffffffffffffffffff1603610718576040517f08c379a000000000000000000000000000000000000000000000000000000000815260040161070f90611c57565b60405180910390fd5b8160015f8581526020019081526020015f206003015f6101000a81548173ffffffffffffffffffffffffffffffffffffffff021916908373ffffffffffffffffffffffffffffffffffffffff1602179055508173ffffffffffffffffffffffffffffffffffffffff16837f5e03d9c2402cd0b3dbd2003f6bb197192b0939ee71373081a4f0d26ecdee696860405160405180910390a3505050565b5f5f60015f8581526020019081526020015f209050806005015f9054906101000a900460ff16801561087157506107e984610b6d565b73ffffffffffffffffffffffffffffffffffffffff168373ffffffffffffffffffffffffffffffffffffffff1614806108705750806003015f9054906101000a900473ffffffffffffffffffffffffffffffffffffffff1673ffffffffffffffffffffffffffffffffffffffff168373ffffffffffffffffffffffffffffffffffffffff16145b5b91505092915050565b813373ffffffffffffffffffffffffffffffffffffffff1661089b82610b6d565b73ffffffffffffffffffffffffffffffffffffffff16146108f1576040517f08c379a00000000000000000000000000000000000000000000000000000000081526004016108e890611bef565b60405180910390fd5b8160015f8581526020019081526020015f206005015f6101000a81548160ff021916908315150217905550827f6abccd5934f543a8605838d91768257de5521383bdb2aa5f286bc01dc94335638360405161094c919061170a565b60405180910390a2505050565b5f5481565b6001602052805f5260405f205f91509050805f01805461097d90611ca2565b80601f01602080910402602001604051908101604052809291908181526020018280546109a990611ca2565b80156109f45780601f106109cb576101008083540402835291602001916109f4565b820191905f5260205f20905b8154815290600101906020018083116109d757829003601f168201915b505050505090806001018054610a0990611ca2565b80601f0160208091040260200160405190810160405280929190818152602001828054610a3590611ca2565b8015610a805780601f10610a5757610100808354040283529160200191610a80565b820191905f5260205f20905b815481529060010190602001808311610a6357829003601f168201915b505050505090806002018054610a9590611ca2565b80601f0160208091040260200160405190810160405280929190818152602001828054610ac190611ca2565b8015610b0c5780601f10610ae357610100808354040283529160200191610b0c565b820191905f5260205f20905b815481529060010190602001808311610aef57829003601f168201915b505050505090806003015f9054906101000a900473ffffffffffffffffffffffffffffffffffffffff1690806004015490806005015f9054906101000a900460ff16908060050160019054906101000a900467ffffffffffffffff16905087565b5f60025f8381526020019081526020015f205f9054906101000a900473ffffffffffffffffffffffffffffffffffffffff1690505f73ffffffffffffffffffffffffffffffffffffffff168173ffffffffffffffffffffffffffffffffffffffff1603610c0f576040517f08c379a0000000000000000000000000000000000000000000000000000000008152600401610c0690611b1f565b60405180910390fd5b919050565b5f5f73ffffffffffffffffffffffffffffffffffffffff168273ffffffffffffffffffffffffffffffffffffffff1603610c83576040517f08c379a0000000000000000000000000000000000000000000000000000000008152600401610c7a90611d1c565b60405180910390fd5b60035f8373ffffffffffffffffffffffffffffffffffffffff1673ffffffffffffffffffffffffffffffffffffffff1681526020019081526020015f20549050919050565b5f5f8989905011610d0e576040517f08c379a0000000000000000000000000000000000000000000000000000000008152600401610d0590611d84565b60405180910390fd5b5f73ffffffffffffffffffffffffffffffffffffffff168373ffffffffffffffffffffffffffffffffffffffff1603610d7c576040517f08c379a0000000000000000000000000000000000000000000000000000000008152600401610d7390611c57565b60405180910390fd5b5f5f815480929190610d8d90611dcf565b9190505590503360025f8381526020019081526020015f205f6101000a81548173ffffffffffffffffffffffffffffffffffffffff021916908373ffffffffffffffffffffffffffffffffffffffff160217905550600160035f3373ffffffffffffffffffffffffffffffffffffffff1673ffffffffffffffffffffffffffffffffffffffff1681526020019081526020015f205f828254610e2f9190611e16565b925050819055506040518060e001604052808a8a8080601f0160208091040260200160405190810160405280939291908181526020018383808284375f81840152601f19601f82011690508083019250505050505050815260200188888080601f0160208091040260200160405190810160405280939291908181526020018383808284375f81840152601f19601f82011690508083019250505050505050815260200186868080601f0160208091040260200160405190810160405280939291908181526020018383808284375f81840152601f19601f8201169050808301925050505050505081526020018473ffffffffffffffffffffffffffffffffffffffff1681526020018381526020016001151581526020014267ffffffffffffffff1681525060015f8381526020019081526020015f205f820151815f019081610f799190612027565b506020820151816001019081610f8f9190612027565b506040820151816002019081610fa59190612027565b506060820151816003015f6101000a81548173ffffffffffffffffffffffffffffffffffffffff021916908373ffffffffffffffffffffffffffffffffffffffff1602179055506080820151816004015560a0820151816005015f6101000a81548160ff02191690831515021790555060c08201518160050160016101000a81548167ffffffffffffffff021916908367ffffffffffffffff160217905550905050803373ffffffffffffffffffffffffffffffffffffffff165f73ffffffffffffffffffffffffffffffffffffffff167fddf252ad1be2c89b69c2b068fc378daa952ba7f163c4a11628f55a4df523b3ef60405160405180910390a48273ffffffffffffffffffffffffffffffffffffffff163373ffffffffffffffffffffffffffffffffffffffff16827f28b20756504e5d66f73ccbfce66374ff4bfa3b5d72bea56bcbca9c798cedc3968c8c8c8c8c8c8b60405161110c9796959493929190612130565b60405180910390a498975050505050505050565b6040518060400160405280600381526020017f434150000000000000000000000000000000000000000000000000000000000081525081565b8060055f3373ffffffffffffffffffffffffffffffffffffffff1673ffffffffffffffffffffffffffffffffffffffff1681526020019081526020015f205f8473ffffffffffffffffffffffffffffffffffffffff1673ffffffffffffffffffffffffffffffffffffffff1681526020019081526020015f205f6101000a81548160ff0219169083151502179055508173ffffffffffffffffffffffffffffffffffffffff163373ffffffffffffffffffffffffffffffffffffffff167f17307eab39ab6107e8899845ad3d59bd9653f200f220920489ca2b5937696c3183604051611245919061170a565b60405180910390a35050565b60605f73ffffffffffffffffffffffffffffffffffffffff1660025f8481526020019081526020015f205f9054906101000a900473ffffffffffffffffffffffffffffffffffffffff1673ffffffffffffffffffffffffffffffffffffffff16036112f1576040517f08c379a00000000000000000000000000000000000000000000000000000000081526004016112e890611b1f565b60405180910390fd5b60015f8381526020019081526020015f20600201805461131090611ca2565b80601f016020809104026020016040519081016040528092919081815260200182805461133c90611ca2565b80156113875780601f1061135e57610100808354040283529160200191611387565b820191905f5260205f20905b81548152906001019060200180831161136a57829003601f168201915b50505050509050919050565b5f60055f8473ffffffffffffffffffffffffffffffffffffffff1673ffffffffffffffffffffffffffffffffffffffff1681526020019081526020015f205f8373ffffffffffffffffffffffffffffffffffffffff1673ffffffffffffffffffffffffffffffffffffffff1681526020019081526020015f205f9054906101000a900460ff16905092915050565b823373ffffffffffffffffffffffffffffffffffffffff1661144282610b6d565b73ffffffffffffffffffffffffffffffffffffffff1614611498576040517f08c379a000000000000000000000000000000000000000000000000000000000815260040161148f90611bef565b60405180910390fd5b828260015f8781526020019081526020015f2060020191826114bb929190612198565b50837f859fac2fc059a2fa38efe7236e1c16278c1519298d62dd05582ff7fa392a104584846040516114ee929190612265565b60405180910390a250505050565b5f81519050919050565b5f82825260208201905092915050565b8281835e5f83830152505050565b5f601f19601f8301169050919050565b5f61153e826114fc565b6115488185611506565b9350611558818560208601611516565b61156181611524565b840191505092915050565b5f6020820190508181035f8301526115848184611534565b905092915050565b5f5ffd5b5f5ffd5b5f819050919050565b6115a681611594565b81146115b0575f5ffd5b50565b5f813590506115c18161159d565b92915050565b5f602082840312156115dc576115db61158c565b5b5f6115e9848285016115b3565b91505092915050565b5f73ffffffffffffffffffffffffffffffffffffffff82169050919050565b5f61161b826115f2565b9050919050565b61162b81611611565b82525050565b5f6020820190506116445f830184611622565b92915050565b61165381611611565b811461165d575f5ffd5b50565b5f8135905061166e8161164a565b92915050565b5f5f6040838503121561168a5761168961158c565b5b5f61169785828601611660565b92505060206116a8858286016115b3565b9150509250929050565b5f5f604083850312156116c8576116c761158c565b5b5f6116d5858286016115b3565b92505060206116e685828601611660565b9150509250929050565b5f8115159050919050565b611704816116f0565b82525050565b5f60208201905061171d5f8301846116fb565b92915050565b61172c816116f0565b8114611736575f5ffd5b50565b5f8135905061174781611723565b92915050565b5f5f604083850312156117635761176261158c565b5b5f611770858286016115b3565b925050602061178185828601611739565b9150509250929050565b61179481611594565b82525050565b5f6020820190506117ad5f83018461178b565b92915050565b5f819050919050565b6117c5816117b3565b82525050565b5f67ffffffffffffffff82169050919050565b6117e7816117cb565b82525050565b5f60e0820190508181035f830152611805818a611534565b905081810360208301526118198189611534565b9050818103604083015261182d8188611534565b905061183c6060830187611622565b61184960808301866117bc565b61185660a08301856116fb565b61186360c08301846117de565b98975050505050505050565b5f602082840312156118845761188361158c565b5b5f61189184828501611660565b91505092915050565b5f5ffd5b5f5ffd5b5f5ffd5b5f5f83601f8401126118bb576118ba61189a565b5b8235905067ffffffffffffffff8111156118d8576118d761189e565b5b6020830191508360018202830111156118f4576118f36118a2565b5b9250929050565b611904816117b3565b811461190e575f5ffd5b50565b5f8135905061191f816118fb565b92915050565b5f5f5f5f5f5f5f5f60a0898b0312156119415761194061158c565b5b5f89013567ffffffffffffffff81111561195e5761195d611590565b5b61196a8b828c016118a6565b9850985050602089013567ffffffffffffffff81111561198d5761198c611590565b5b6119998b828c016118a6565b9650965050604089013567ffffffffffffffff8111156119bc576119bb611590565b5b6119c88b828c016118a6565b945094505060606119db8b828c01611660565b92505060806119ec8b828c01611911565b9150509295985092959890939650565b5f5f60408385031215611a1257611a1161158c565b5b5f611a1f85828601611660565b9250506020611a3085828601611739565b9150509250929050565b5f5f60408385031215611a5057611a4f61158c565b5b5f611a5d85828601611660565b9250506020611a6e85828601611660565b9150509250929050565b5f5f5f60408486031215611a8f57611a8e61158c565b5b5f611a9c868287016115b3565b935050602084013567ffffffffffffffff811115611abd57611abc611590565b5b611ac9868287016118a6565b92509250509250925092565b7f4e4f545f4d494e544544000000000000000000000000000000000000000000005f82015250565b5f611b09600a83611506565b9150611b1482611ad5565b602082019050919050565b5f6020820190508181035f830152611b3681611afd565b9050919050565b7f4e4f545f415050524f56454400000000000000000000000000000000000000005f82015250565b5f611b71600c83611506565b9150611b7c82611b3d565b602082019050919050565b5f6020820190508181035f830152611b9e81611b65565b9050919050565b7f4e4f545f4147454e545f4f574e455200000000000000000000000000000000005f82015250565b5f611bd9600f83611506565b9150611be482611ba5565b602082019050919050565b5f6020820190508181035f830152611c0681611bcd565b9050919050565b7f5a45524f5f4f50455241544f52000000000000000000000000000000000000005f82015250565b5f611c41600d83611506565b9150611c4c82611c0d565b602082019050919050565b5f6020820190508181035f830152611c6e81611c35565b9050919050565b7f4e487b71000000000000000000000000000000000000000000000000000000005f52602260045260245ffd5b5f6002820490506001821680611cb957607f821691505b602082108103611ccc57611ccb611c75565b5b50919050565b7f5a45524f5f4f574e4552000000000000000000000000000000000000000000005f82015250565b5f611d06600a83611506565b9150611d1182611cd2565b602082019050919050565b5f6020820190508181035f830152611d3381611cfa565b9050919050565b7f454d5054595f4147454e545f4e414d45000000000000000000000000000000005f82015250565b5f611d6e601083611506565b9150611d7982611d3a565b602082019050919050565b5f6020820190508181035f830152611d9b81611d62565b9050919050565b7f4e487b71000000000000000000000000000000000000000000000000000000005f52601160045260245ffd5b5f611dd982611594565b91507fffffffffffffffffffffffffffffffffffffffffffffffffffffffffffffffff8203611e0b57611e0a611da2565b5b600182019050919050565b5f611e2082611594565b9150611e2b83611594565b9250828201905080821115611e4357611e42611da2565b5b92915050565b7f4e487b71000000000000000000000000000000000000000000000000000000005f52604160045260245ffd5b5f819050815f5260205f209050919050565b5f6020601f8301049050919050565b5f82821b905092915050565b5f60088302611ed27fffffffffffffffffffffffffffffffffffffffffffffffffffffffffffffffff82611e97565b611edc8683611e97565b95508019841693508086168417925050509392505050565b5f819050919050565b5f611f17611f12611f0d84611594565b611ef4565b611594565b9050919050565b5f819050919050565b611f3083611efd565b611f44611f3c82611f1e565b848454611ea3565b825550505050565b5f5f905090565b611f5b611f4c565b611f66818484611f27565b505050565b5f5b82811015611f8c57611f815f828401611f53565b600181019050611f6d565b505050565b601f821115611fdf5782821115611fde57611fab81611e76565b611fb483611e88565b611fbd85611e88565b6020861015611fca575f90505b808301611fd982840382611f6b565b505050505b5b505050565b5f82821c905092915050565b5f611fff5f1984600802611fe4565b1980831691505092915050565b5f6120178383611ff0565b9150826002028217905092915050565b612030826114fc565b67ffffffffffffffff81111561204957612048611e49565b5b6120538254611ca2565b61205e828285611f91565b5f60209050601f83116001811461208f575f841561207d578287015190505b612087858261200c565b8655506120ee565b601f19841661209d86611e76565b5f5b828110156120c45784890151825560018201915060208501945060208101905061209f565b868310156120e157848901516120dd601f891682611ff0565b8355505b6001600288020188555050505b505050505050565b828183375f83830152505050565b5f61210f8385611506565b935061211c8385846120f6565b61212583611524565b840190509392505050565b5f6080820190508181035f83015261214981898b612104565b9050818103602083015261215e818789612104565b90508181036040830152612173818587612104565b905061218260608301846117bc565b98975050505050505050565b5f82905092915050565b6121a2838361218e565b67ffffffffffffffff8111156121bb576121ba611e49565b5b6121c58254611ca2565b6121d0828285611f91565b5f601f8311600181146121fd575f84156121eb578287013590505b6121f5858261200c565b86555061225c565b601f19841661220b86611e76565b5f5b828110156122325784890135825560018201915060208501945060208101905061220d565b8683101561224f578489013561224b601f891682611ff0565b8355505b6001600288020188555050505b50505050505050565b5f6020820190508181035f83015261227e818486612104565b9050939250505056fea2646970667358221220c4654f4bd1b0d7cf9bd505ce223add85cb54ea49b8efdff1696622b77b12521364736f6c63430008210033","linkReferences":{}},"methodIdentifiers":{"agentConfigs(uint256)":"584d5e49","approve(address,uint256)":"095ea7b3","balanceOf(address)":"70a08231","getApproved(uint256)":"081812fc","isApprovedForAll(address,address)":"e985e9c5","isAuthorizedOperator(uint256,address)":"0d8dfbda","name()":"06fdde03","nextAgentId()":"30efc498","ownerOf(uint256)":"6352211e","registerAgent(string,string,string,address,bytes32)":"9049d3a0","setAgentOperator(uint256,address)":"0c557143","setAgentStatus(uint256,bool)":"1bc51e7d","setApprovalForAll(address,bool)":"a22cb465","symbol()":"95d89b41","tokenURI(uint256)":"c87b56dd","updateAgentMetadata(uint256,string)":"ed72e999"},"id":1}