{"abi":[{"type":"constructor","inputs":[{"name":"passportAddress","type":"address","internalType":"address"}],"stateMutability":"nonpayable"},{"type":"function","name":"decisions","inputs":[{"name":"","type":"uint256","internalType":"uint256"}],"outputs":[{"name":"agentId","type":"uint256","internalType":"uint256"},{"name":"seasonId","type":"uint256","internalType":"uint256"},{"name":"marketHash","type":"bytes32","internalType":"bytes32"},{"name":"action","type":"uint8","internalType":"enum DecisionLogger.Action"},{"name":"confidence","type":"uint16","internalType":"uint16"},{"name":"riskScore","type":"uint16","internalType":"uint16"},{"name":"targetWindowSeconds","type":"uint64","internalType":"uint64"},{"name":"dataHash","type":"bytes32","internalType":"bytes32"},{"name":"rationaleHash","type":"bytes32","internalType":"bytes32"},{"name":"evidenceURI","type":"string","internalType":"string"},{"name":"submittedAt","type":"uint64","internalType":"uint64"}],"stateMutability":"view"},{"type":"function","name":"getAgentDecisions","inputs":[{"name":"agentId","type":"uint256","internalType":"uint256"}],"outputs":[{"name":"","type":"uint256[]","internalType":"uint256[]"}],"stateMutability":"view"},{"type":"function","name":"getSeasonDecisions","inputs":[{"name":"seasonId","type":"uint256","internalType":"uint256"}],"outputs":[{"name":"","type":"uint256[]","internalType":"uint256[]"}],"stateMutability":"view"},{"type":"function","name":"nextDecisionId","inputs":[],"outputs":[{"name":"","type":"uint256","internalType":"uint256"}],"stateMutability":"view"},{"type":"function","name":"passport","inputs":[],"outputs":[{"name":"","type":"address","internalType":"contract IAgentPassport"}],"stateMutability":"view"},{"type":"function","name":"submitDecision","inputs":[{"name":"agentId","type":"uint256","internalType":"uint256"},{"name":"seasonId","type":"uint256","internalType":"uint256"},{"name":"marketHash","type":"bytes32","internalType":"bytes32"},{"name":"action","type":"uint8","internalType":"enum DecisionLogger.Action"},{"name":"confidence","type":"uint16","internalType":"uint16"},{"name":"riskScore","type":"uint16","internalType":"uint16"},{"name":"targetWindowSeconds","type":"uint64","internalType":"uint64"},{"name":"dataHash","type":"bytes32","internalType":"bytes32"},{"name":"rationaleHash","type":"bytes32","internalType":"bytes32"},{"name":"evidenceURI","type":"string","internalType":"string"}],"outputs":[{"name":"decisionId","type":"uint256","internalType":"uint256"}],"stateMutability":"nonpayable"},{"type":"event","name":"DecisionSubmitted","inputs":[{"name":"decisionId","type":"uint256","indexed":true,"internalType":"uint256"},{"name":"agentId","type":"uint256","indexed":true,"internalType":"uint256"},{"name":"seasonId","type":"uint256","indexed":true,"internalType":"uint256"},{"name":"marketHash","type":"bytes32","indexed":false,"internalType":"bytes32"},{"name":"action","type":"uint8","indexed":false,"internalType":"enum DecisionLogger.Action"},{"name":"confidence","type":"uint16","indexed":false,"internalType":"uint16"},{"name":"riskScore","type":"uint16","indexed":false,"internalType":"uint16"},{"name":"targetWindowSeconds","type":"uint64","indexed":false,"internalType":"uint64"},{"name":"dataHash","type":"bytes32","indexed":false,"internalType":"bytes32"},{"name":"rationaleHash","type":"bytes32","indexed":false,"internalType":"bytes32"},{"name":"evidenceURI","type":"string","indexed":false,"internalType":"string"}],"anonymous":false}],"bytecode":{"object":"0x60a060405260015f55348015610013575f5ffd5b506040516116923803806116928339818101604052810190610035919061013b565b5f73ffffffffffffffffffffffffffffffffffffffff168173ffffffffffffffffffffffffffffffffffffffff16036100a3576040517f08c379a000000000000000000000000000000000000000000000000000000000815260040161009a906101c0565b60405180910390fd5b8073ffffffffffffffffffffffffffffffffffffffff1660808173ffffffffffffffffffffffffffffffffffffffff1681525050506101de565b5f5ffd5b5f73ffffffffffffffffffffffffffffffffffffffff82169050919050565b5f61010a826100e1565b9050919050565b61011a81610100565b8114610124575f5ffd5b50565b5f8151905061013581610111565b92915050565b5f602082840312156101505761014f6100dd565b5b5f61015d84828501610127565b91505092915050565b5f82825260208201905092915050565b7f5a45524f5f50415353504f5254000000000000000000000000000000000000005f82015250565b5f6101aa600d83610166565b91506101b582610176565b602082019050919050565b5f6020820190508181035f8301526101d78161019e565b9050919050565b6080516114956101fd5f395f818161017101526101fd01526114955ff3fe608060405234801561000f575f5ffd5b5060043610610060575f3560e01c8063081cb6701461006457806317ba9c4d1461008257806332fdea15146100a05780634af6dc1e146100d0578063b829df8214610100578063cc6a574a1461013a575b5f5ffd5b61006c61016a565b6040516100799190610820565b60405180910390f35b61008a61016f565b60405161009791906108b3565b60405180910390f35b6100ba60048036038101906100b591906108fe565b610193565b6040516100c791906109e0565b60405180910390f35b6100ea60048036038101906100e59190610b2b565b6101fa565b6040516100f79190610820565b60405180910390f35b61011a600480360381019061011591906108fe565b610676565b6040516101319b9a99989796959493929190610d34565b60405180910390f35b610154600480360381019061014f91906108fe565b6107a1565b60405161016191906109e0565b60405180910390f35b5f5481565b7f000000000000000000000000000000000000000000000000000000000000000081565b606060025f8381526020019081526020015f208054806020026020016040519081016040528092919081815260200182805480156101ee57602002820191905f5260205f20905b8154815260200190600101908083116101da575b50505050509050919050565b5f7f000000000000000000000000000000000000000000000000000000000000000073ffffffffffffffffffffffffffffffffffffffff16630d8dfbda8d336040518363ffffffff1660e01b8152600401610256929190610e04565b602060405180830381865afa158015610271573d5f5f3e3d5ffd5b505050506040513d601f19601f820116820180604052508101906102959190610e60565b6102d4576040517f08c379a00000000000000000000000000000000000000000000000000000000081526004016102cb90610ed5565b60405180910390fd5b60648861ffff16111561031c576040517f08c379a000000000000000000000000000000000000000000000000000000000815260040161031390610f3d565b60405180910390fd5b60648761ffff161115610364576040517f08c379a000000000000000000000000000000000000000000000000000000000815260040161035b90610fa5565b60405180910390fd5b5f8667ffffffffffffffff16116103b0576040517f08c379a00000000000000000000000000000000000000000000000000000000081526004016103a79061100d565b60405180910390fd5b5f5f8154809291906103c190611058565b9190505590506040518061016001604052808d81526020018c81526020018b81526020018a60038111156103f8576103f7610c33565b5b81526020018961ffff1681526020018861ffff1681526020018767ffffffffffffffff16815260200186815260200185815260200184848080601f0160208091040260200160405190810160405280939291908181526020018383808284375f81840152601f19601f8201169050808301925050505050505081526020014267ffffffffffffffff1681525060015f8381526020019081526020015f205f820151815f015560208201518160010155604082015181600201556060820151816003015f6101000a81548160ff021916908360038111156104db576104da610c33565b5b021790555060808201518160030160016101000a81548161ffff021916908361ffff16021790555060a08201518160030160036101000a81548161ffff021916908361ffff16021790555060c08201518160030160056101000a81548167ffffffffffffffff021916908367ffffffffffffffff16021790555060e08201518160040155610100820151816005015561012082015181600601908161058091906112d1565b50610140820151816007015f6101000a81548167ffffffffffffffff021916908367ffffffffffffffff16021790555090505060025f8d81526020019081526020015f2081908060018154018082558091505060019003905f5260205f20015f909190919091505560035f8c81526020019081526020015f2081908060018154018082558091505060019003905f5260205f20015f90919091909150558a8c827f3b36cbecc367595dc99c121c3b59ccadc9bac0a10fa9c76d02b74407b6b73d268d8d8d8d8d8d8d8d8d60405161065f999897969594939291906113da565b60405180910390a49b9a5050505050505050505050565b6001602052805f5260405f205f91509050805f015490806001015490806002015490806003015f9054906101000a900460ff16908060030160019054906101000a900461ffff16908060030160039054906101000a900461ffff16908060030160059054906101000a900467ffffffffffffffff1690806004015490806005015490806006018054610707906110f9565b80601f0160208091040260200160405190810160405280929190818152602001828054610733906110f9565b801561077e5780601f106107555761010080835404028352916020019161077e565b820191905f5260205f20905b81548152906001019060200180831161076157829003601f168201915b505050505090806007015f9054906101000a900467ffffffffffffffff1690508b565b606060035f8381526020019081526020015f208054806020026020016040519081016040528092919081815260200182805480156107fc57602002820191905f5260205f20905b8154815260200190600101908083116107e8575b50505050509050919050565b5f819050919050565b61081a81610808565b82525050565b5f6020820190506108335f830184610811565b92915050565b5f73ffffffffffffffffffffffffffffffffffffffff82169050919050565b5f819050919050565b5f61087b61087661087184610839565b610858565b610839565b9050919050565b5f61088c82610861565b9050919050565b5f61089d82610882565b9050919050565b6108ad81610893565b82525050565b5f6020820190506108c65f8301846108a4565b92915050565b5f5ffd5b5f5ffd5b6108dd81610808565b81146108e7575f5ffd5b50565b5f813590506108f8816108d4565b92915050565b5f60208284031215610913576109126108cc565b5b5f610920848285016108ea565b91505092915050565b5f81519050919050565b5f82825260208201905092915050565b5f819050602082019050919050565b61095b81610808565b82525050565b5f61096c8383610952565b60208301905092915050565b5f602082019050919050565b5f61098e82610929565b6109988185610933565b93506109a383610943565b805f5b838110156109d35781516109ba8882610961565b97506109c583610978565b9250506001810190506109a6565b5085935050505092915050565b5f6020820190508181035f8301526109f88184610984565b905092915050565b5f819050919050565b610a1281610a00565b8114610a1c575f5ffd5b50565b5f81359050610a2d81610a09565b92915050565b60048110610a3f575f5ffd5b50565b5f81359050610a5081610a33565b92915050565b5f61ffff82169050919050565b610a6c81610a56565b8114610a76575f5ffd5b50565b5f81359050610a8781610a63565b92915050565b5f67ffffffffffffffff82169050919050565b610aa981610a8d565b8114610ab3575f5ffd5b50565b5f81359050610ac481610aa0565b92915050565b5f5ffd5b5f5ffd5b5f5ffd5b5f5f83601f840112610aeb57610aea610aca565b5b8235905067ffffffffffffffff811115610b0857610b07610ace565b5b602083019150836001820283011115610b2457610b23610ad2565b5b9250929050565b5f5f5f5f5f5f5f5f5f5f5f6101408c8e031215610b4b57610b4a6108cc565b5b5f610b588e828f016108ea565b9b50506020610b698e828f016108ea565b9a50506040610b7a8e828f01610a1f565b9950506060610b8b8e828f01610a42565b9850506080610b9c8e828f01610a79565b97505060a0610bad8e828f01610a79565b96505060c0610bbe8e828f01610ab6565b95505060e0610bcf8e828f01610a1f565b945050610100610be18e828f01610a1f565b9350506101208c013567ffffffffffffffff811115610c0357610c026108d0565b5b610c0f8e828f01610ad6565b92509250509295989b509295989b9093969950565b610c2d81610a00565b82525050565b7f4e487b71000000000000000000000000000000000000000000000000000000005f52602160045260245ffd5b60048110610c7157610c70610c33565b5b50565b5f819050610c8182610c60565b919050565b5f610c9082610c74565b9050919050565b610ca081610c86565b82525050565b610caf81610a56565b82525050565b610cbe81610a8d565b82525050565b5f81519050919050565b5f82825260208201905092915050565b8281835e5f83830152505050565b5f601f19601f8301169050919050565b5f610d0682610cc4565b610d108185610cce565b9350610d20818560208601610cde565b610d2981610cec565b840191505092915050565b5f61016082019050610d485f83018e610811565b610d55602083018d610811565b610d62604083018c610c24565b610d6f606083018b610c97565b610d7c608083018a610ca6565b610d8960a0830189610ca6565b610d9660c0830188610cb5565b610da360e0830187610c24565b610db1610100830186610c24565b818103610120830152610dc48185610cfc565b9050610dd4610140830184610cb5565b9c9b505050505050505050505050565b5f610dee82610839565b9050919050565b610dfe81610de4565b82525050565b5f604082019050610e175f830185610811565b610e246020830184610df5565b9392505050565b5f8115159050919050565b610e3f81610e2b565b8114610e49575f5ffd5b50565b5f81519050610e5a81610e36565b92915050565b5f60208284031215610e7557610e746108cc565b5b5f610e8284828501610e4c565b91505092915050565b7f4e4f545f415554484f52495a45445f4147454e540000000000000000000000005f82015250565b5f610ebf601483610cce565b9150610eca82610e8b565b602082019050919050565b5f6020820190508181035f830152610eec81610eb3565b9050919050565b7f494e56414c49445f434f4e464944454e434500000000000000000000000000005f82015250565b5f610f27601283610cce565b9150610f3282610ef3565b602082019050919050565b5f6020820190508181035f830152610f5481610f1b565b9050919050565b7f494e56414c49445f5249534b00000000000000000000000000000000000000005f82015250565b5f610f8f600c83610cce565b9150610f9a82610f5b565b602082019050919050565b5f6020820190508181035f830152610fbc81610f83565b9050919050565b7f494e56414c49445f57494e444f570000000000000000000000000000000000005f82015250565b5f610ff7600e83610cce565b915061100282610fc3565b602082019050919050565b5f6020820190508181035f83015261102481610feb565b9050919050565b7f4e487b71000000000000000000000000000000000000000000000000000000005f52601160045260245ffd5b5f61106282610808565b91507fffffffffffffffffffffffffffffffffffffffffffffffffffffffffffffffff82036110945761109361102b565b5b600182019050919050565b7f4e487b71000000000000000000000000000000000000000000000000000000005f52604160045260245ffd5b7f4e487b71000000000000000000000000000000000000000000000000000000005f52602260045260245ffd5b5f600282049050600182168061111057607f821691505b602082108103611123576111226110cc565b5b50919050565b5f819050815f5260205f209050919050565b5f6020601f8301049050919050565b5f82821b905092915050565b5f600883026111857fffffffffffffffffffffffffffffffffffffffffffffffffffffffffffffffff8261114a565b61118f868361114a565b95508019841693508086168417925050509392505050565b5f6111c16111bc6111b784610808565b610858565b610808565b9050919050565b5f819050919050565b6111da836111a7565b6111ee6111e6826111c8565b848454611156565b825550505050565b5f5f905090565b6112056111f6565b6112108184846111d1565b505050565b5f5b828110156112365761122b5f8284016111fd565b600181019050611217565b505050565b601f82111561128957828211156112885761125581611129565b61125e8361113b565b6112678561113b565b6020861015611274575f90505b80830161128382840382611215565b505050505b5b505050565b5f82821c905092915050565b5f6112a95f198460080261128e565b1980831691505092915050565b5f6112c1838361129a565b9150826002028217905092915050565b6112da82610cc4565b67ffffffffffffffff8111156112f3576112f261109f565b5b6112fd82546110f9565b61130882828561123b565b5f60209050601f831160018114611339575f8415611327578287015190505b61133185826112b6565b865550611398565b601f19841661134786611129565b5f5b8281101561136e57848901518255600182019150602085019450602081019050611349565b8683101561138b5784890151611387601f89168261129a565b8355505b6001600288020188555050505b505050505050565b828183375f83830152505050565b5f6113b98385610cce565b93506113c68385846113a0565b6113cf83610cec565b840190509392505050565b5f610100820190506113ee5f83018c610c24565b6113fb602083018b610c97565b611408604083018a610ca6565b6114156060830189610ca6565b6114226080830188610cb5565b61142f60a0830187610c24565b61143c60c0830186610c24565b81810360e083015261144f8184866113ae565b90509a995050505050505050505056fea2646970667358221220d01c9f9bb5fbb303a551d68a13ac14f68394872b0057e09a28636ab672f1e02864736f6c63430008210033","linkReferences":{}},"methodIdentifiers":{"decisions(uint256)":"b829df82","getAgentDecisions(uint256)":"32fdea15","getSeasonDecisions(uint256)":"cc6a574a","nextDecisionId()":"081cb670","passport()":"17ba9c4d","submitDecision(uint256,uint256,bytes32,uint8,uint16,uint16,uint64,bytes32,bytes32,string)":"4af6dc1e"},"id":2}