{"abi":[{"type":"constructor","inputs":[],"stateMutability":"nonpayable"},{"type":"function","name":"decisionOutcomeId","inputs":[{"name":"","type":"uint256","internalType":"uint256"}],"outputs":[{"name":"","type":"uint256","internalType":"uint256"}],"stateMutability":"view"},{"type":"function","name":"getAgentOutcomes","inputs":[{"name":"agentId","type":"uint256","internalType":"uint256"}],"outputs":[{"name":"","type":"uint256[]","internalType":"uint256[]"}],"stateMutability":"view"},{"type":"function","name":"getDecisionOutcome","inputs":[{"name":"decisionId","type":"uint256","internalType":"uint256"}],"outputs":[{"name":"","type":"tuple","internalType":"struct OutcomeRegistry.Outcome","components":[{"name":"decisionId","type":"uint256","internalType":"uint256"},{"name":"agentId","type":"uint256","internalType":"uint256"},{"name":"seasonId","type":"uint256","internalType":"uint256"},{"name":"status","type":"uint8","internalType":"enum OutcomeRegistry.OutcomeStatus"},{"name":"roiBps","type":"int256","internalType":"int256"},{"name":"confidenceCalibration","type":"uint16","internalType":"uint16"},{"name":"metricsHash","type":"bytes32","internalType":"bytes32"},{"name":"evidenceURI","type":"string","internalType":"string"},{"name":"submittedAt","type":"uint64","internalType":"uint64"}]}],"stateMutability":"view"},{"type":"function","name":"getSeasonOutcomes","inputs":[{"name":"seasonId","type":"uint256","internalType":"uint256"}],"outputs":[{"name":"","type":"uint256[]","internalType":"uint256[]"}],"stateMutability":"view"},{"type":"function","name":"nextOutcomeId","inputs":[],"outputs":[{"name":"","type":"uint256","internalType":"uint256"}],"stateMutability":"view"},{"type":"function","name":"outcomeSubmitters","inputs":[{"name":"","type":"address","internalType":"address"}],"outputs":[{"name":"","type":"bool","internalType":"bool"}],"stateMutability":"view"},{"type":"function","name":"outcomes","inputs":[{"name":"","type":"uint256","internalType":"uint256"}],"outputs":[{"name":"decisionId","type":"uint256","internalType":"uint256"},{"name":"agentId","type":"uint256","internalType":"uint256"},{"name":"seasonId","type":"uint256","internalType":"uint256"},{"name":"status","type":"uint8","internalType":"enum OutcomeRegistry.OutcomeStatus"},{"name":"roiBps","type":"int256","internalType":"int256"},{"name":"confidenceCalibration","type":"uint16","internalType":"uint16"},{"name":"metricsHash","type":"bytes32","internalType":"bytes32"},{"name":"evidenceURI","type":"string","internalType":"string"},{"name":"submittedAt","type":"uint64","internalType":"uint64"}],"stateMutability":"view"},{"type":"function","name":"owner","inputs":[],"outputs":[{"name":"","type":"address","internalType":"address"}],"stateMutability":"view"},{"type":"function","name":"setOutcomeSubmitter","inputs":[{"name":"submitter","type":"address","internalType":"address"},{"name":"allowed","type":"bool","internalType":"bool"}],"outputs":[],"stateMutability":"nonpayable"},{"type":"function","name":"submitOutcome","inputs":[{"name":"decisionId","type":"uint256","internalType":"uint256"},{"name":"agentId","type":"uint256","internalType":"uint256"},{"name":"seasonId","type":"uint256","internalType":"uint256"},{"name":"status","type":"uint8","internalType":"enum OutcomeRegistry.OutcomeStatus"},{"name":"roiBps","type":"int256","internalType":"int256"},{"name":"confidenceCalibration","type":"uint16","internalType":"uint16"},{"name":"metricsHash","type":"bytes32","internalType":"bytes32"},{"name":"evidenceURI","type":"string","internalType":"string"}],"outputs":[{"name":"outcomeId","type":"uint256","internalType":"uint256"}],"stateMutability":"nonpayable"},{"type":"event","name":"OutcomeSubmitted","inputs":[{"name":"outcomeId","type":"uint256","indexed":true,"internalType":"uint256"},{"name":"decisionId","type":"uint256","indexed":true,"internalType":"uint256"},{"name":"agentId","type":"uint256","indexed":true,"internalType":"uint256"},{"name":"seasonId","type":"uint256","indexed":false,"internalType":"uint256"},{"name":"status","type":"uint8","indexed":false,"internalType":"enum OutcomeRegistry.OutcomeStatus"},{"name":"roiBps","type":"int256","indexed":false,"internalType":"int256"},{"name":"confidenceCalibration","type":"uint16","indexed":false,"internalType":"uint16"},{"name":"metricsHash","type":"bytes32","indexed":false,"internalType":"bytes32"},{"name":"evidenceURI","type":"string","indexed":false,"internalType":"string"}],"anonymous":false},{"type":"event","name":"OutcomeSubmitterUpdated","inputs":[{"name":"submitter","type":"address","indexed":true,"internalType":"address"},{"name":"allowed","type":"bool","indexed":false,"internalType":"bool"}],"anonymous":false}],"bytecode":{"object":"0x6080604052600180553480156012575f5ffd5b50335f5f6101000a81548173ffffffffffffffffffffffffffffffffffffffff021916908373ffffffffffffffffffffffffffffffffffffffff160217905550600160025f3373ffffffffffffffffffffffffffffffffffffffff1673ffffffffffffffffffffffffffffffffffffffff1681526020019081526020015f205f6101000a81548160ff021916908315150217905550611a49806100b45f395ff3fe608060405234801561000f575f5ffd5b506004361061009c575f3560e01c8063dcac83da11610064578063dcac83da1461016a578063eed2a1471461019a578063eee0fcdb146101d2578063f1e7f758146101f0578063f255bac6146102205761009c565b806386ff5585146100a05780638da5cb5b146100d0578063952db4da146100ee578063ac44d5de1461010a578063c4894bba1461013a575b5f5ffd5b6100ba60048036038101906100b59190610d08565b610250565b6040516100c79190610de7565b60405180910390f35b6100d861061f565b6040516100e59190610e3f565b60405180910390f35b61010860048036038101906101039190610eb7565b610643565b005b610124600480360381019061011f9190610ef5565b610777565b6040516101319190611123565b60405180910390f35b610154600480360381019061014f9190610ef5565b610946565b60405161016191906111eb565b60405180910390f35b610184600480360381019061017f9190610ef5565b6109ad565b6040516101919190610de7565b60405180910390f35b6101b460048036038101906101af9190610ef5565b6109c2565b6040516101c99998979695949392919061129e565b60405180910390f35b6101da610abe565b6040516101e79190610de7565b60405180910390f35b61020a60048036038101906102059190610ef5565b610ac4565b60405161021791906111eb565b60405180910390f35b61023a60048036038101906102359190611330565b610b2b565b604051610247919061136a565b60405180910390f35b5f60025f3373ffffffffffffffffffffffffffffffffffffffff1673ffffffffffffffffffffffffffffffffffffffff1681526020019081526020015f205f9054906101000a900460ff166102da576040517f08c379a00000000000000000000000000000000000000000000000000000000081526004016102d1906113cd565b60405180910390fd5b5f8a0361031c576040517f08c379a000000000000000000000000000000000000000000000000000000000815260040161031390611435565b60405180910390fd5b5f60045f8c81526020019081526020015f20541461036f576040517f08c379a00000000000000000000000000000000000000000000000000000000081526004016103669061149d565b60405180910390fd5b60648561ffff1611156103b7576040517f08c379a00000000000000000000000000000000000000000000000000000000081526004016103ae90611505565b60405180910390fd5b60015f8154809291906103c990611550565b9190505590506040518061012001604052808b81526020018a8152602001898152602001886004811115610400576103ff610f2f565b5b81526020018781526020018661ffff16815260200185815260200184848080601f0160208091040260200160405190810160405280939291908181526020018383808284375f81840152601f19601f8201169050808301925050505050505081526020014267ffffffffffffffff1681525060035f8381526020019081526020015f205f820151815f015560208201518160010155604082015181600201556060820151816003015f6101000a81548160ff021916908360048111156104c9576104c8610f2f565b5b02179055506080820151816004015560a0820151816005015f6101000a81548161ffff021916908361ffff16021790555060c0820151816006015560e082015181600701908161051991906117d2565b50610100820151816008015f6101000a81548167ffffffffffffffff021916908367ffffffffffffffff1602179055509050508060045f8c81526020019081526020015f208190555060055f8a81526020019081526020015f2081908060018154018082558091505060019003905f5260205f20015f909190919091505560065f8981526020019081526020015f2081908060018154018082558091505060019003905f5260205f20015f9091909190915055888a827ffd1d74f3d773385545c266cefe86615a19092643ecc92edbfc61d4f7e0e2dec58b8b8b8b8b8b8b60405161060a97969594939291906118db565b60405180910390a49998505050505050505050565b5f5f9054906101000a900473ffffffffffffffffffffffffffffffffffffffff1681565b5f5f9054906101000a900473ffffffffffffffffffffffffffffffffffffffff1673ffffffffffffffffffffffffffffffffffffffff163373ffffffffffffffffffffffffffffffffffffffff16146106d1576040517f08c379a00000000000000000000000000000000000000000000000000000000081526004016106c89061198d565b60405180910390fd5b8060025f8473ffffffffffffffffffffffffffffffffffffffff1673ffffffffffffffffffffffffffffffffffffffff1681526020019081526020015f205f6101000a81548160ff0219169083151502179055508173ffffffffffffffffffffffffffffffffffffffff167f71f973e3a86210eefdc754d7119d85466acd80e2331d14a958b83eab03eb5c348260405161076b919061136a565b60405180910390a25050565b61077f610b48565b5f60045f8481526020019081526020015f205490505f81036107d6576040517f08c379a00000000000000000000000000000000000000000000000000000000081526004016107cd906119f5565b60405180910390fd5b60035f8281526020019081526020015f20604051806101200160405290815f82015481526020016001820154815260200160028201548152602001600382015f9054906101000a900460ff16600481111561083457610833610f2f565b5b600481111561084657610845610f2f565b5b815260200160048201548152602001600582015f9054906101000a900461ffff1661ffff1661ffff1681526020016006820154815260200160078201805461088d906115f1565b80601f01602080910402602001604051908101604052809291908181526020018280546108b9906115f1565b80156109045780601f106108db57610100808354040283529160200191610904565b820191905f5260205f20905b8154815290600101906020018083116108e757829003601f168201915b50505050508152602001600882015f9054906101000a900467ffffffffffffffff1667ffffffffffffffff1667ffffffffffffffff1681525050915050919050565b606060055f8381526020019081526020015f208054806020026020016040519081016040528092919081815260200182805480156109a157602002820191905f5260205f20905b81548152602001906001019080831161098d575b50505050509050919050565b6004602052805f5260405f205f915090505481565b6003602052805f5260405f205f91509050805f015490806001015490806002015490806003015f9054906101000a900460ff1690806004015490806005015f9054906101000a900461ffff1690806006015490806007018054610a24906115f1565b80601f0160208091040260200160405190810160405280929190818152602001828054610a50906115f1565b8015610a9b5780601f10610a7257610100808354040283529160200191610a9b565b820191905f5260205f20905b815481529060010190602001808311610a7e57829003601f168201915b505050505090806008015f9054906101000a900467ffffffffffffffff16905089565b60015481565b606060065f8381526020019081526020015f20805480602002602001604051908101604052809291908181526020018280548015610b1f57602002820191905f5260205f20905b815481526020019060010190808311610b0b575b50505050509050919050565b6002602052805f5260405f205f915054906101000a900460ff1681565b6040518061012001604052805f81526020015f81526020015f81526020015f6004811115610b7957610b78610f2f565b5b81526020015f81526020015f61ffff1681526020015f8152602001606081526020015f67ffffffffffffffff1681525090565b5f5ffd5b5f5ffd5b5f819050919050565b610bc681610bb4565b8114610bd0575f5ffd5b50565b5f81359050610be181610bbd565b92915050565b60058110610bf3575f5ffd5b50565b5f81359050610c0481610be7565b92915050565b5f819050919050565b610c1c81610c0a565b8114610c26575f5ffd5b50565b5f81359050610c3781610c13565b92915050565b5f61ffff82169050919050565b610c5381610c3d565b8114610c5d575f5ffd5b50565b5f81359050610c6e81610c4a565b92915050565b5f819050919050565b610c8681610c74565b8114610c90575f5ffd5b50565b5f81359050610ca181610c7d565b92915050565b5f5ffd5b5f5ffd5b5f5ffd5b5f5f83601f840112610cc857610cc7610ca7565b5b8235905067ffffffffffffffff811115610ce557610ce4610cab565b5b602083019150836001820283011115610d0157610d00610caf565b5b9250929050565b5f5f5f5f5f5f5f5f5f6101008a8c031215610d2657610d25610bac565b5b5f610d338c828d01610bd3565b9950506020610d448c828d01610bd3565b9850506040610d558c828d01610bd3565b9750506060610d668c828d01610bf6565b9650506080610d778c828d01610c29565b95505060a0610d888c828d01610c60565b94505060c0610d998c828d01610c93565b93505060e08a013567ffffffffffffffff811115610dba57610db9610bb0565b5b610dc68c828d01610cb3565b92509250509295985092959850929598565b610de181610bb4565b82525050565b5f602082019050610dfa5f830184610dd8565b92915050565b5f73ffffffffffffffffffffffffffffffffffffffff82169050919050565b5f610e2982610e00565b9050919050565b610e3981610e1f565b82525050565b5f602082019050610e525f830184610e30565b92915050565b610e6181610e1f565b8114610e6b575f5ffd5b50565b5f81359050610e7c81610e58565b92915050565b5f8115159050919050565b610e9681610e82565b8114610ea0575f5ffd5b50565b5f81359050610eb181610e8d565b92915050565b5f5f60408385031215610ecd57610ecc610bac565b5b5f610eda85828601610e6e565b9250506020610eeb85828601610ea3565b9150509250929050565b5f60208284031215610f0a57610f09610bac565b5b5f610f1784828501610bd3565b91505092915050565b610f2981610bb4565b82525050565b7f4e487b71000000000000000000000000000000000000000000000000000000005f52602160045260245ffd5b60058110610f6d57610f6c610f2f565b5b50565b5f819050610f7d82610f5c565b919050565b5f610f8c82610f70565b9050919050565b610f9c81610f82565b82525050565b610fab81610c0a565b82525050565b610fba81610c3d565b82525050565b610fc981610c74565b82525050565b5f81519050919050565b5f82825260208201905092915050565b8281835e5f83830152505050565b5f601f19601f8301169050919050565b5f61101182610fcf565b61101b8185610fd9565b935061102b818560208601610fe9565b61103481610ff7565b840191505092915050565b5f67ffffffffffffffff82169050919050565b61105b8161103f565b82525050565b5f61012083015f8301516110775f860182610f20565b50602083015161108a6020860182610f20565b50604083015161109d6040860182610f20565b5060608301516110b06060860182610f93565b5060808301516110c36080860182610fa2565b5060a08301516110d660a0860182610fb1565b5060c08301516110e960c0860182610fc0565b5060e083015184820360e08601526111018282611007565b915050610100830151611118610100860182611052565b508091505092915050565b5f6020820190508181035f83015261113b8184611061565b905092915050565b5f81519050919050565b5f82825260208201905092915050565b5f819050602082019050919050565b5f6111778383610f20565b60208301905092915050565b5f602082019050919050565b5f61119982611143565b6111a3818561114d565b93506111ae8361115d565b805f5b838110156111de5781516111c5888261116c565b97506111d083611183565b9250506001810190506111b1565b5085935050505092915050565b5f6020820190508181035f830152611203818461118f565b905092915050565b61121481610f82565b82525050565b61122381610c0a565b82525050565b61123281610c3d565b82525050565b61124181610c74565b82525050565b5f82825260208201905092915050565b5f61126182610fcf565b61126b8185611247565b935061127b818560208601610fe9565b61128481610ff7565b840191505092915050565b6112988161103f565b82525050565b5f610120820190506112b25f83018c610dd8565b6112bf602083018b610dd8565b6112cc604083018a610dd8565b6112d9606083018961120b565b6112e6608083018861121a565b6112f360a0830187611229565b61130060c0830186611238565b81810360e08301526113128185611257565b905061132261010083018461128f565b9a9950505050505050505050565b5f6020828403121561134557611344610bac565b5b5f61135284828501610e6e565b91505092915050565b61136481610e82565b82525050565b5f60208201905061137d5f83018461135b565b92915050565b7f4e4f545f4f5554434f4d455f5355424d495454455200000000000000000000005f82015250565b5f6113b7601583611247565b91506113c282611383565b602082019050919050565b5f6020820190508181035f8301526113e4816113ab565b9050919050565b7f494e56414c49445f4445434953494f4e000000000000000000000000000000005f82015250565b5f61141f601083611247565b915061142a826113eb565b602082019050919050565b5f6020820190508181035f83015261144c81611413565b9050919050565b7f4f5554434f4d455f4558495354530000000000000000000000000000000000005f82015250565b5f611487600e83611247565b915061149282611453565b602082019050919050565b5f6020820190508181035f8301526114b48161147b565b9050919050565b7f494e56414c49445f43414c4942524154494f4e000000000000000000000000005f82015250565b5f6114ef601383611247565b91506114fa826114bb565b602082019050919050565b5f6020820190508181035f83015261151c816114e3565b9050919050565b7f4e487b71000000000000000000000000000000000000000000000000000000005f52601160045260245ffd5b5f61155a82610bb4565b91507fffffffffffffffffffffffffffffffffffffffffffffffffffffffffffffffff820361158c5761158b611523565b5b600182019050919050565b7f4e487b71000000000000000000000000000000000000000000000000000000005f52604160045260245ffd5b7f4e487b71000000000000000000000000000000000000000000000000000000005f52602260045260245ffd5b5f600282049050600182168061160857607f821691505b60208210810361161b5761161a6115c4565b5b50919050565b5f819050815f5260205f209050919050565b5f6020601f8301049050919050565b5f82821b905092915050565b5f6008830261167d7fffffffffffffffffffffffffffffffffffffffffffffffffffffffffffffffff82611642565b6116878683611642565b95508019841693508086168417925050509392505050565b5f819050919050565b5f6116c26116bd6116b884610bb4565b61169f565b610bb4565b9050919050565b5f819050919050565b6116db836116a8565b6116ef6116e7826116c9565b84845461164e565b825550505050565b5f5f905090565b6117066116f7565b6117118184846116d2565b505050565b5f5b828110156117375761172c5f8284016116fe565b600181019050611718565b505050565b601f82111561178a57828211156117895761175681611621565b61175f83611633565b61176885611633565b6020861015611775575f90505b80830161178482840382611716565b505050505b5b505050565b5f82821c905092915050565b5f6117aa5f198460080261178f565b1980831691505092915050565b5f6117c2838361179b565b9150826002028217905092915050565b6117db82610fcf565b67ffffffffffffffff8111156117f4576117f3611597565b5b6117fe82546115f1565b61180982828561173c565b5f60209050601f83116001811461183a575f8415611828578287015190505b61183285826117b7565b865550611899565b601f19841661184886611621565b5f5b8281101561186f5784890151825560018201915060208501945060208101905061184a565b8683101561188c5784890151611888601f89168261179b565b8355505b6001600288020188555050505b505050505050565b828183375f83830152505050565b5f6118ba8385611247565b93506118c78385846118a1565b6118d083610ff7565b840190509392505050565b5f60c0820190506118ee5f83018a610dd8565b6118fb602083018961120b565b611908604083018861121a565b6119156060830187611229565b6119226080830186611238565b81810360a08301526119358184866118af565b905098975050505050505050565b7f4e4f545f4f574e455200000000000000000000000000000000000000000000005f82015250565b5f611977600983611247565b915061198282611943565b602082019050919050565b5f6020820190508181035f8301526119a48161196b565b9050919050565b7f4e4f5f4f5554434f4d45000000000000000000000000000000000000000000005f82015250565b5f6119df600a83611247565b91506119ea826119ab565b602082019050919050565b5f6020820190508181035f830152611a0c816119d3565b905091905056fea26469706673582212200586f68e51c3ea83e3135acf8dce4bcd4dc94626c42cf95a6142dcb46f7a5c8564736f6c63430008210033","linkReferences":{}},"methodIdentifiers":{"decisionOutcomeId(uint256)":"dcac83da","getAgentOutcomes(uint256)":"c4894bba","getDecisionOutcome(uint256)":"ac44d5de","getSeasonOutcomes(uint256)":"f1e7f758","nextOutcomeId()":"eee0fcdb","outcomeSubmitters(address)":"f255bac6","outcomes(uint256)":"eed2a147","owner()":"8da5cb5b","setOutcomeSubmitter(address,bool)":"952db4da","submitOutcome(uint256,uint256,uint256,uint8,int256,uint16,bytes32,string)":"86ff5585"},"id":3}