{"abi":[{"type":"constructor","inputs":[],"stateMutability":"nonpayable"},{"type":"function","name":"getSeasonScore","inputs":[{"name":"seasonId","type":"uint256","internalType":"uint256"},{"name":"agentId","type":"uint256","internalType":"uint256"}],"outputs":[{"name":"","type":"tuple","internalType":"struct ReputationEngine.SeasonScore","components":[{"name":"decisions","type":"uint256","internalType":"uint256"},{"name":"successes","type":"uint256","internalType":"uint256"},{"name":"failures","type":"uint256","internalType":"uint256"},{"name":"neutrals","type":"uint256","internalType":"uint256"},{"name":"totalRoiBps","type":"int256","internalType":"int256"},{"name":"totalRiskScore","type":"uint256","internalType":"uint256"},{"name":"finalScore","type":"uint256","internalType":"uint256"},{"name":"rank","type":"uint256","internalType":"uint256"},{"name":"finalized","type":"bool","internalType":"bool"}]}],"stateMutability":"view"},{"type":"function","name":"owner","inputs":[],"outputs":[{"name":"","type":"address","internalType":"address"}],"stateMutability":"view"},{"type":"function","name":"scoreSubmitters","inputs":[{"name":"","type":"address","internalType":"address"}],"outputs":[{"name":"","type":"bool","internalType":"bool"}],"stateMutability":"view"},{"type":"function","name":"seasonScores","inputs":[{"name":"","type":"uint256","internalType":"uint256"},{"name":"","type":"uint256","internalType":"uint256"}],"outputs":[{"name":"decisions","type":"uint256","internalType":"uint256"},{"name":"successes","type":"uint256","internalType":"uint256"},{"name":"failures","type":"uint256","internalType":"uint256"},{"name":"neutrals","type":"uint256","internalType":"uint256"},{"name":"totalRoiBps","type":"int256","internalType":"int256"},{"name":"totalRiskScore","type":"uint256","internalType":"uint256"},{"name":"finalScore","type":"uint256","internalType":"uint256"},{"name":"rank","type":"uint256","internalType":"uint256"},{"name":"finalized","type":"bool","internalType":"bool"}],"stateMutability":"view"},{"type":"function","name":"setScoreSubmitter","inputs":[{"name":"submitter","type":"address","internalType":"address"},{"name":"allowed","type":"bool","internalType":"bool"}],"outputs":[],"stateMutability":"nonpayable"},{"type":"function","name":"submitSeasonRank","inputs":[{"name":"seasonId","type":"uint256","internalType":"uint256"},{"name":"agentId","type":"uint256","internalType":"uint256"},{"name":"rank","type":"uint256","internalType":"uint256"}],"outputs":[],"stateMutability":"nonpayable"},{"type":"function","name":"submitSeasonScore","inputs":[{"name":"seasonId","type":"uint256","internalType":"uint256"},{"name":"agentId","type":"uint256","internalType":"uint256"},{"name":"decisions","type":"uint256","internalType":"uint256"},{"name":"successes","type":"uint256","internalType":"uint256"},{"name":"failures","type":"uint256","internalType":"uint256"},{"name":"neutrals","type":"uint256","internalType":"uint256"},{"name":"totalRoiBps","type":"int256","internalType":"int256"},{"name":"totalRiskScore","type":"uint256","internalType":"uint256"},{"name":"finalScore","type":"uint256","internalType":"uint256"}],"outputs":[],"stateMutability":"nonpayable"},{"type":"event","name":"ScoreSubmitterUpdated","inputs":[{"name":"submitter","type":"address","indexed":true,"internalType":"address"},{"name":"allowed","type":"bool","indexed":false,"internalType":"bool"}],"anonymous":false},{"type":"event","name":"SeasonRankSubmitted","inputs":[{"name":"seasonId","type":"uint256","indexed":true,"internalType":"uint256"},{"name":"agentId","type":"uint256","indexed":true,"internalType":"uint256"},{"name":"rank","type":"uint256","indexed":false,"internalType":"uint256"}],"anonymous":false},{"type":"event","name":"SeasonScoreSubmitted","inputs":[{"name":"seasonId","type":"uint256","indexed":true,"internalType":"uint256"},{"name":"agentId","type":"uint256","indexed":true,"internalType":"uint256"},{"name":"decisions","type":"uint256","indexed":false,"internalType":"uint256"},{"name":"successes","type":"uint256","indexed":false,"internalType":"uint256"},{"name":"failures","type":"uint256","indexed":false,"internalType":"uint256"},{"name":"neutrals","type":"uint256","indexed":false,"internalType":"uint256"},{"name":"totalRoiBps","type":"int256","indexed":false,"internalType":"int256"},{"name":"totalRiskScore","type":"uint256","indexed":false,"internalType":"uint256"},{"name":"finalScore","type":"uint256","indexed":false,"internalType":"uint256"}],"anonymous":false}],"bytecode":{"object":"0x6080604052348015600e575f5ffd5b50335f5f6101000a81548173ffffffffffffffffffffffffffffffffffffffff021916908373ffffffffffffffffffffffffffffffffffffffff1602179055506001805f3373ffffffffffffffffffffffffffffffffffffffff1673ffffffffffffffffffffffffffffffffffffffff1681526020019081526020015f205f6101000a81548160ff021916908315150217905550610f78806100af5f395ff3fe608060405234801561000f575f5ffd5b506004361061007b575f3560e01c8063848900f411610059578063848900f4146101035780638da5cb5b1461011f578063a7f1560e1461013d578063b87395001461016d5761007b565b80632a5754a61461007f5780634dca1872146100af5780635d4b3ade146100cb575b5f5ffd5b610099600480360381019061009491906107d2565b610189565b6040516100a69190610906565b60405180910390f35b6100c960048036038101906100c49190610920565b61022e565b005b6100e560048036038101906100e091906107d2565b61038c565b6040516100fa9998979695949392919061099d565b60405180910390f35b61011d60048036038101906101189190610a52565b6103ed565b005b6101276105e1565b6040516101349190610b55565b60405180910390f35b61015760048036038101906101529190610b98565b610605565b6040516101649190610bc3565b60405180910390f35b61018760048036038101906101829190610c06565b610622565b005b610191610756565b60025f8481526020019081526020015f205f8381526020019081526020015f20604051806101200160405290815f820154815260200160018201548152602001600282015481526020016003820154815260200160048201548152602001600582015481526020016006820154815260200160078201548152602001600882015f9054906101000a900460ff161515151581525050905092915050565b60015f3373ffffffffffffffffffffffffffffffffffffffff1673ffffffffffffffffffffffffffffffffffffffff1681526020019081526020015f205f9054906101000a900460ff166102b7576040517f08c379a00000000000000000000000000000000000000000000000000000000081526004016102ae90610c9e565b60405180910390fd5b60025f8481526020019081526020015f205f8381526020019081526020015f206008015f9054906101000a900460ff16610326576040517f08c379a000000000000000000000000000000000000000000000000000000000815260040161031d90610d06565b60405180910390fd5b8060025f8581526020019081526020015f205f8481526020019081526020015f206007018190555081837fd2013c9a46f40d0f82a0ec3def0c429ef8fae3e301400e785fbf9818e7dc97fe8360405161037f9190610d24565b60405180910390a3505050565b6002602052815f5260405f20602052805f5260405f205f9150915050805f015490806001015490806002015490806003015490806004015490806005015490806006015490806007015490806008015f9054906101000a900460ff16905089565b60015f3373ffffffffffffffffffffffffffffffffffffffff1673ffffffffffffffffffffffffffffffffffffffff1681526020019081526020015f205f9054906101000a900460ff16610476576040517f08c379a000000000000000000000000000000000000000000000000000000000815260040161046d90610c9e565b60405180910390fd5b8385876104839190610d6a565b61048d9190610d6a565b87146104ce576040517f08c379a00000000000000000000000000000000000000000000000000000000081526004016104c590610de7565b60405180910390fd5b612710811115610513576040517f08c379a000000000000000000000000000000000000000000000000000000000815260040161050a90610e4f565b60405180910390fd5b5f60025f8b81526020019081526020015f205f8a81526020019081526020015f20905087815f01819055508681600101819055508581600201819055508481600301819055508381600401819055508281600501819055508181600601819055506001816008015f6101000a81548160ff021916908315150217905550888a7fe6ea3a0f928f5b8ecf5f7b0f013c434092ea5322b13f73a745340ab625c0810a8a8a8a8a8a8a8a6040516105cd9796959493929190610e6d565b60405180910390a350505050505050505050565b5f5f9054906101000a900473ffffffffffffffffffffffffffffffffffffffff1681565b6001602052805f5260405f205f915054906101000a900460ff1681565b5f5f9054906101000a900473ffffffffffffffffffffffffffffffffffffffff1673ffffffffffffffffffffffffffffffffffffffff163373ffffffffffffffffffffffffffffffffffffffff16146106b0576040517f08c379a00000000000000000000000000000000000000000000000000000000081526004016106a790610f24565b60405180910390fd5b8060015f8473ffffffffffffffffffffffffffffffffffffffff1673ffffffffffffffffffffffffffffffffffffffff1681526020019081526020015f205f6101000a81548160ff0219169083151502179055508173ffffffffffffffffffffffffffffffffffffffff167fe4e2b850927424239de6be708f6627c4d207501be3c90e3d5bf9052a834ffe838260405161074a9190610bc3565b60405180910390a25050565b6040518061012001604052805f81526020015f81526020015f81526020015f81526020015f81526020015f81526020015f81526020015f81526020015f151581525090565b5f5ffd5b5f819050919050565b6107b18161079f565b81146107bb575f5ffd5b50565b5f813590506107cc816107a8565b92915050565b5f5f604083850312156107e8576107e761079b565b5b5f6107f5858286016107be565b9250506020610806858286016107be565b9150509250929050565b6108198161079f565b82525050565b5f819050919050565b6108318161081f565b82525050565b5f8115159050919050565b61084b81610837565b82525050565b61012082015f8201516108665f850182610810565b5060208201516108796020850182610810565b50604082015161088c6040850182610810565b50606082015161089f6060850182610810565b5060808201516108b26080850182610828565b5060a08201516108c560a0850182610810565b5060c08201516108d860c0850182610810565b5060e08201516108eb60e0850182610810565b50610100820151610900610100850182610842565b50505050565b5f6101208201905061091a5f830184610851565b92915050565b5f5f5f606084860312156109375761093661079b565b5b5f610944868287016107be565b9350506020610955868287016107be565b9250506040610966868287016107be565b9150509250925092565b6109798161079f565b82525050565b6109888161081f565b82525050565b61099781610837565b82525050565b5f610120820190506109b15f83018c610970565b6109be602083018b610970565b6109cb604083018a610970565b6109d86060830189610970565b6109e5608083018861097f565b6109f260a0830187610970565b6109ff60c0830186610970565b610a0c60e0830185610970565b610a1a61010083018461098e565b9a9950505050505050505050565b610a318161081f565b8114610a3b575f5ffd5b50565b5f81359050610a4c81610a28565b92915050565b5f5f5f5f5f5f5f5f5f6101208a8c031215610a7057610a6f61079b565b5b5f610a7d8c828d016107be565b9950506020610a8e8c828d016107be565b9850506040610a9f8c828d016107be565b9750506060610ab08c828d016107be565b9650506080610ac18c828d016107be565b95505060a0610ad28c828d016107be565b94505060c0610ae38c828d01610a3e565b93505060e0610af48c828d016107be565b925050610100610b068c828d016107be565b9150509295985092959850929598565b5f73ffffffffffffffffffffffffffffffffffffffff82169050919050565b5f610b3f82610b16565b9050919050565b610b4f81610b35565b82525050565b5f602082019050610b685f830184610b46565b92915050565b610b7781610b35565b8114610b81575f5ffd5b50565b5f81359050610b9281610b6e565b92915050565b5f60208284031215610bad57610bac61079b565b5b5f610bba84828501610b84565b91505092915050565b5f602082019050610bd65f83018461098e565b92915050565b610be581610837565b8114610bef575f5ffd5b50565b5f81359050610c0081610bdc565b92915050565b5f5f60408385031215610c1c57610c1b61079b565b5b5f610c2985828601610b84565b9250506020610c3a85828601610bf2565b9150509250929050565b5f82825260208201905092915050565b7f4e4f545f53434f52455f5355424d4954544552000000000000000000000000005f82015250565b5f610c88601383610c44565b9150610c9382610c54565b602082019050919050565b5f6020820190508181035f830152610cb581610c7c565b9050919050565b7f53434f52455f4e4f545f46494e414c495a4544000000000000000000000000005f82015250565b5f610cf0601383610c44565b9150610cfb82610cbc565b602082019050919050565b5f6020820190508181035f830152610d1d81610ce4565b9050919050565b5f602082019050610d375f830184610970565b92915050565b7f4e487b71000000000000000000000000000000000000000000000000000000005f52601160045260245ffd5b5f610d748261079f565b9150610d7f8361079f565b9250828201905080821115610d9757610d96610d3d565b5b92915050565b7f494e56414c49445f434f554e54530000000000000000000000000000000000005f82015250565b5f610dd1600e83610c44565b9150610ddc82610d9d565b602082019050919050565b5f6020820190508181035f830152610dfe81610dc5565b9050919050565b7f494e56414c49445f53434f5245000000000000000000000000000000000000005f82015250565b5f610e39600d83610c44565b9150610e4482610e05565b602082019050919050565b5f6020820190508181035f830152610e6681610e2d565b9050919050565b5f60e082019050610e805f83018a610970565b610e8d6020830189610970565b610e9a6040830188610970565b610ea76060830187610970565b610eb4608083018661097f565b610ec160a0830185610970565b610ece60c0830184610970565b98975050505050505050565b7f4e4f545f4f574e455200000000000000000000000000000000000000000000005f82015250565b5f610f0e600983610c44565b9150610f1982610eda565b602082019050919050565b5f6020820190508181035f830152610f3b81610f02565b905091905056fea2646970667358221220cef5a125cf1dcb2532c44e0c2dd2e83d1cee9f6aa7a6145c331132b9c44618a064736f6c63430008210033","linkReferences":{}},"methodIdentifiers":{"getSeasonScore(uint256,uint256)":"2a5754a6","owner()":"8da5cb5b","scoreSubmitters(address)":"a7f1560e","seasonScores(uint256,uint256)":"5d4b3ade","setScoreSubmitter(address,bool)":"b8739500","submitSeasonRank(uint256,uint256,uint256)":"4dca1872","submitSeasonScore(uint256,uint256,uint256,uint256,uint256,uint256,int256,uint256,uint256)":"848900f4"},"id":4}