{"abi":[{"type":"constructor","inputs":[],"stateMutability":"nonpayable"},{"type":"function","name":"closeSeason","inputs":[{"name":"seasonId","type":"uint256","internalType":"uint256"}],"outputs":[],"stateMutability":"nonpayable"},{"type":"function","name":"createSeason","inputs":[{"name":"seasonName","type":"string","internalType":"string"},{"name":"startTime","type":"uint64","internalType":"uint64"},{"name":"endTime","type":"uint64","internalType":"uint64"},{"name":"marketScope","type":"string","internalType":"string"}],"outputs":[{"name":"seasonId","type":"uint256","internalType":"uint256"}],"stateMutability":"nonpayable"},{"type":"function","name":"getSeasonAgents","inputs":[{"name":"seasonId","type":"uint256","internalType":"uint256"}],"outputs":[{"name":"","type":"uint256[]","internalType":"uint256[]"}],"stateMutability":"view"},{"type":"function","name":"joinSeason","inputs":[{"name":"seasonId","type":"uint256","internalType":"uint256"},{"name":"agentId","type":"uint256","internalType":"uint256"}],"outputs":[],"stateMutability":"nonpayable"},{"type":"function","name":"joined","inputs":[{"name":"","type":"uint256","internalType":"uint256"},{"name":"","type":"uint256","internalType":"uint256"}],"outputs":[{"name":"","type":"bool","internalType":"bool"}],"stateMutability":"view"},{"type":"function","name":"nextSeasonId","inputs":[],"outputs":[{"name":"","type":"uint256","internalType":"uint256"}],"stateMutability":"view"},{"type":"function","name":"owner","inputs":[],"outputs":[{"name":"","type":"address","internalType":"address"}],"stateMutability":"view"},{"type":"function","name":"seasons","inputs":[{"name":"","type":"uint256","internalType":"uint256"}],"outputs":[{"name":"name","type":"string","internalType":"string"},{"name":"startTime","type":"uint64","internalType":"uint64"},{"name":"endTime","type":"uint64","internalType":"uint64"},{"name":"marketScope","type":"string","internalType":"string"},{"name":"closed","type":"bool","internalType":"bool"}],"stateMutability":"view"},{"type":"event","name":"AgentJoinedSeason","inputs":[{"name":"seasonId","type":"uint256","indexed":true,"internalType":"uint256"},{"name":"agentId","type":"uint256","indexed":true,"internalType":"uint256"}],"anonymous":false},{"type":"event","name":"SeasonClosed","inputs":[{"name":"seasonId","type":"uint256","indexed":true,"internalType":"uint256"}],"anonymous":false},{"type":"event","name":"SeasonCreated","inputs":[{"name":"seasonId","type":"uint256","indexed":true,"internalType":"uint256"},{"name":"name","type":"string","indexed":false,"internalType":"string"},{"name":"startTime","type":"uint64","indexed":false,"internalType":"uint64"},{"name":"endTime","type":"uint64","indexed":false,"internalType":"uint64"},{"name":"marketScope","type":"string","indexed":false,"internalType":"string"}],"anonymous":false}],"bytecode":{"object":"0x6080604052600180553480156012575f5ffd5b50335f5f6101000a81548173ffffffffffffffffffffffffffffffffffffffff021916908373ffffffffffffffffffffffffffffffffffffffff16021790555061147e8061005f5f395ff3fe608060405234801561000f575f5ffd5b5060043610610086575f3560e01c80638da5cb5b116100595780638da5cb5b14610110578063d1da19ae1461012e578063d5ae1e0a1461015e578063f5d709a11461018e57610086565b8063087af04a1461008a57806319d3da97146100a857806344fa4ad9146100c45780634e6ac299146100e0575b5f5ffd5b6100926101c2565b60405161009f91906109fe565b60405180910390f35b6100c260048036038101906100bd9190610a49565b6101c8565b005b6100de60048036038101906100d99190610a74565b610325565b005b6100fa60048036038101906100f59190610b50565b6104fa565b60405161010791906109fe565b60405180910390f35b6101186107c0565b6040516101259190610c32565b60405180910390f35b61014860048036038101906101439190610a49565b6107e4565b6040516101559190610d02565b60405180910390f35b61017860048036038101906101739190610a74565b61084b565b6040516101859190610d3c565b60405180910390f35b6101a860048036038101906101a39190610a49565b610875565b6040516101b9959493929190610dd4565b60405180910390f35b60015481565b5f5f9054906101000a900473ffffffffffffffffffffffffffffffffffffffff1673ffffffffffffffffffffffffffffffffffffffff163373ffffffffffffffffffffffffffffffffffffffff1614610256576040517f08c379a000000000000000000000000000000000000000000000000000000000815260040161024d90610e7d565b60405180910390fd5b5f60025f8381526020019081526020015f206001015f9054906101000a900467ffffffffffffffff1667ffffffffffffffff16036102c9576040517f08c379a00000000000000000000000000000000000000000000000000000000081526004016102c090610ee5565b60405180910390fd5b600160025f8381526020019081526020015f206003015f6101000a81548160ff021916908315150217905550807f3439feb0a4b9143ddafd4627e3748730febfd4203c89cb29220ec0a6e1e70c5b60405160405180910390a250565b5f60025f8481526020019081526020015f2090505f816001015f9054906101000a900467ffffffffffffffff1667ffffffffffffffff160361039c576040517f08c379a000000000000000000000000000000000000000000000000000000000815260040161039390610ee5565b60405180910390fd5b806003015f9054906101000a900460ff16156103ed576040517f08c379a00000000000000000000000000000000000000000000000000000000081526004016103e490610f4d565b60405180910390fd5b60035f8481526020019081526020015f205f8381526020019081526020015f205f9054906101000a900460ff161561045a576040517f08c379a000000000000000000000000000000000000000000000000000000000815260040161045190610fb5565b60405180910390fd5b600160035f8581526020019081526020015f205f8481526020019081526020015f205f6101000a81548160ff02191690831515021790555060045f8481526020019081526020015f2082908060018154018082558091505060019003905f5260205f20015f909190919091505581837fb5f4334f3a9a32d628c1cdf7f03a54b183ddaadcb6627741eebf03af550e90f060405160405180910390a3505050565b5f5f5f9054906101000a900473ffffffffffffffffffffffffffffffffffffffff1673ffffffffffffffffffffffffffffffffffffffff163373ffffffffffffffffffffffffffffffffffffffff1614610589576040517f08c379a000000000000000000000000000000000000000000000000000000000815260040161058090610e7d565b60405180910390fd5b8467ffffffffffffffff168467ffffffffffffffff16116105df576040517f08c379a00000000000000000000000000000000000000000000000000000000081526004016105d69061101d565b60405180910390fd5b60015f8154809291906105f190611068565b9190505590506040518060a0016040528088888080601f0160208091040260200160405190810160405280939291908181526020018383808284375f81840152601f19601f8201169050808301925050505050505081526020018667ffffffffffffffff1681526020018567ffffffffffffffff16815260200184848080601f0160208091040260200160405190810160405280939291908181526020018383808284375f81840152601f19601f8201169050808301925050505050505081526020015f151581525060025f8381526020019081526020015f205f820151815f0190816106de91906112ea565b506020820151816001015f6101000a81548167ffffffffffffffff021916908367ffffffffffffffff16021790555060408201518160010160086101000a81548167ffffffffffffffff021916908367ffffffffffffffff160217905550606082015181600201908161075191906112ea565b506080820151816003015f6101000a81548160ff021916908315150217905550905050807f2d6146d830cc2a7d97642e8c864d7b8362a080d3feed90cca022e21fc6e35b438888888888886040516107ae969594939291906113f3565b60405180910390a29695505050505050565b5f5f9054906101000a900473ffffffffffffffffffffffffffffffffffffffff1681565b606060045f8381526020019081526020015f2080548060200260200160405190810160405280929190818152602001828054801561083f57602002820191905f5260205f20905b81548152602001906001019080831161082b575b50505050509050919050565b6003602052815f5260405f20602052805f5260405f205f915091509054906101000a900460ff1681565b6002602052805f5260405f205f91509050805f01805461089490611109565b80601f01602080910402602001604051908101604052809291908181526020018280546108c090611109565b801561090b5780601f106108e25761010080835404028352916020019161090b565b820191905f5260205f20905b8154815290600101906020018083116108ee57829003601f168201915b505050505090806001015f9054906101000a900467ffffffffffffffff16908060010160089054906101000a900467ffffffffffffffff169080600201805461095390611109565b80601f016020809104026020016040519081016040528092919081815260200182805461097f90611109565b80156109ca5780601f106109a1576101008083540402835291602001916109ca565b820191905f5260205f20905b8154815290600101906020018083116109ad57829003601f168201915b505050505090806003015f9054906101000a900460ff16905085565b5f819050919050565b6109f8816109e6565b82525050565b5f602082019050610a115f8301846109ef565b92915050565b5f5ffd5b5f5ffd5b610a28816109e6565b8114610a32575f5ffd5b50565b5f81359050610a4381610a1f565b92915050565b5f60208284031215610a5e57610a5d610a17565b5b5f610a6b84828501610a35565b91505092915050565b5f5f60408385031215610a8a57610a89610a17565b5b5f610a9785828601610a35565b9250506020610aa885828601610a35565b9150509250929050565b5f5ffd5b5f5ffd5b5f5ffd5b5f5f83601f840112610ad357610ad2610ab2565b5b8235905067ffffffffffffffff811115610af057610aef610ab6565b5b602083019150836001820283011115610b0c57610b0b610aba565b5b9250929050565b5f67ffffffffffffffff82169050919050565b610b2f81610b13565b8114610b39575f5ffd5b50565b5f81359050610b4a81610b26565b92915050565b5f5f5f5f5f5f60808789031215610b6a57610b69610a17565b5b5f87013567ffffffffffffffff811115610b8757610b86610a1b565b5b610b9389828a01610abe565b96509650506020610ba689828a01610b3c565b9450506040610bb789828a01610b3c565b935050606087013567ffffffffffffffff811115610bd857610bd7610a1b565b5b610be489828a01610abe565b92509250509295509295509295565b5f73ffffffffffffffffffffffffffffffffffffffff82169050919050565b5f610c1c82610bf3565b9050919050565b610c2c81610c12565b82525050565b5f602082019050610c455f830184610c23565b92915050565b5f81519050919050565b5f82825260208201905092915050565b5f819050602082019050919050565b610c7d816109e6565b82525050565b5f610c8e8383610c74565b60208301905092915050565b5f602082019050919050565b5f610cb082610c4b565b610cba8185610c55565b9350610cc583610c65565b805f5b83811015610cf5578151610cdc8882610c83565b9750610ce783610c9a565b925050600181019050610cc8565b5085935050505092915050565b5f6020820190508181035f830152610d1a8184610ca6565b905092915050565b5f8115159050919050565b610d3681610d22565b82525050565b5f602082019050610d4f5f830184610d2d565b92915050565b5f81519050919050565b5f82825260208201905092915050565b8281835e5f83830152505050565b5f601f19601f8301169050919050565b5f610d9782610d55565b610da18185610d5f565b9350610db1818560208601610d6f565b610dba81610d7d565b840191505092915050565b610dce81610b13565b82525050565b5f60a0820190508181035f830152610dec8188610d8d565b9050610dfb6020830187610dc5565b610e086040830186610dc5565b8181036060830152610e1a8185610d8d565b9050610e296080830184610d2d565b9695505050505050565b7f4e4f545f4f574e455200000000000000000000000000000000000000000000005f82015250565b5f610e67600983610d5f565b9150610e7282610e33565b602082019050919050565b5f6020820190508181035f830152610e9481610e5b565b9050919050565b7f554e4b4e4f574e5f534541534f4e0000000000000000000000000000000000005f82015250565b5f610ecf600e83610d5f565b9150610eda82610e9b565b602082019050919050565b5f6020820190508181035f830152610efc81610ec3565b9050919050565b7f534541534f4e5f434c4f534544000000000000000000000000000000000000005f82015250565b5f610f37600d83610d5f565b9150610f4282610f03565b602082019050919050565b5f6020820190508181035f830152610f6481610f2b565b9050919050565b7f414c52454144595f4a4f494e45440000000000000000000000000000000000005f82015250565b5f610f9f600e83610d5f565b9150610faa82610f6b565b602082019050919050565b5f6020820190508181035f830152610fcc81610f93565b9050919050565b7f494e56414c49445f54494d455f52414e474500000000000000000000000000005f82015250565b5f611007601283610d5f565b915061101282610fd3565b602082019050919050565b5f6020820190508181035f83015261103481610ffb565b9050919050565b7f4e487b71000000000000000000000000000000000000000000000000000000005f52601160045260245ffd5b5f611072826109e6565b91507fffffffffffffffffffffffffffffffffffffffffffffffffffffffffffffffff82036110a4576110a361103b565b5b600182019050919050565b7f4e487b71000000000000000000000000000000000000000000000000000000005f52604160045260245ffd5b7f4e487b71000000000000000000000000000000000000000000000000000000005f52602260045260245ffd5b5f600282049050600182168061112057607f821691505b602082108103611133576111326110dc565b5b50919050565b5f819050815f5260205f209050919050565b5f6020601f8301049050919050565b5f82821b905092915050565b5f600883026111957fffffffffffffffffffffffffffffffffffffffffffffffffffffffffffffffff8261115a565b61119f868361115a565b95508019841693508086168417925050509392505050565b5f819050919050565b5f6111da6111d56111d0846109e6565b6111b7565b6109e6565b9050919050565b5f819050919050565b6111f3836111c0565b6112076111ff826111e1565b848454611166565b825550505050565b5f5f905090565b61121e61120f565b6112298184846111ea565b505050565b5f5b8281101561124f576112445f828401611216565b600181019050611230565b505050565b601f8211156112a257828211156112a15761126e81611139565b6112778361114b565b6112808561114b565b602086101561128d575f90505b80830161129c8284038261122e565b505050505b5b505050565b5f82821c905092915050565b5f6112c25f19846008026112a7565b1980831691505092915050565b5f6112da83836112b3565b9150826002028217905092915050565b6112f382610d55565b67ffffffffffffffff81111561130c5761130b6110af565b5b6113168254611109565b611321828285611254565b5f60209050601f831160018114611352575f8415611340578287015190505b61134a85826112cf565b8655506113b1565b601f19841661136086611139565b5f5b8281101561138757848901518255600182019150602085019450602081019050611362565b868310156113a457848901516113a0601f8916826112b3565b8355505b6001600288020188555050505b505050505050565b828183375f83830152505050565b5f6113d28385610d5f565b93506113df8385846113b9565b6113e883610d7d565b840190509392505050565b5f6080820190508181035f83015261140c81888a6113c7565b905061141b6020830187610dc5565b6114286040830186610dc5565b818103606083015261143b8184866113c7565b905097965050505050505056fea2646970667358221220bb4b3794aee600886ed530bb00eca717a25999e7a0b9a09f7d8c64adc5ee54a264736f6c63430008210033","linkReferences":{}},"methodIdentifiers":{"closeSeason(uint256)":"19d3da97","createSeason(string,uint64,uint64,string)":"4e6ac299","getSeasonAgents(uint256)":"d1da19ae","joinSeason(uint256,uint256)":"44fa4ad9","joined(uint256,uint256)":"d5ae1e0a","nextSeasonId()":"087af04a","owner()":"8da5cb5b","seasons(uint256)":"f5d709a1"},"id":5}